{
    "txid": "dcab04518774527989747cf8cea152177e1c095756b7ee6e1bac8a648fd0489b",
    "hash": "dcab04518774527989747cf8cea152177e1c095756b7ee6e1bac8a648fd0489b",
    "version": 2,
    "size": 176,
    "vsize": 176,
    "weight": 704,
    "locktime": 0,
    "vin": [
        {
            "txid": "5897de6bd6027a475eadd57019d4e6872c396d0716c4875a5f1a6fcfdf385c1f",
            "vout": 0,
            "scriptSig": {
                "asm": "",
                "hex": ""
            },
            "sequence": 4294967295
        }
    ],
    "vout": [
        {
            "value": 0.18000000,
            "n": 0,
            "scriptPubKey": {
                "asm": "OP_DUP OP_HASH160 5a2f1784c55a322ffe4cc3ca9fea8dfb44cdea11 OP_EQUALVERIFY OP_CHECKSIG",
                "desc": "addr(ERNkirDf3jsER2ykJevf8USM2rj8Xi3GCF)#6202at7e",
                "hex": "76a9145a2f1784c55a322ffe4cc3ca9fea8dfb44cdea1188ac",
                "address": "ERNkirDf3jsER2ykJevf8USM2rj8Xi3GCF",
                "type": "pubkeyhash"
            }
        },
        {
            "value": 0.00000000,
            "n": 1,
            "scriptPubKey": {
                "asm": "OP_RETURN 54686973204f505f52455455524e207472616e73616374696f6e206f7574707574207761732063726561746564206279206d6f646966696564206372656174657261777472616e73616374696f6e2e",
                "desc": "raw(6a4c4f54686973204f505f52455455524e207472616e73616374696f6e206f7574707574207761732063726561746564206279206d6f646966696564206372656174657261777472616e73616374696f6e2e)#zf2avljj",
                "hex": "6a4c4f54686973204f505f52455455524e207472616e73616374696f6e206f7574707574207761732063726561746564206279206d6f646966696564206372656174657261777472616e73616374696f6e2e",
                "type": "nulldata"
            }
        }
    ],
    "hex": "02000000011f5c38dfcf6f1a5f5a87c416076d392c87e6d41970d5ad5e477a02d66bde97580000000000ffffffff0280a81201000000001976a9145a2f1784c55a322ffe4cc3ca9fea8dfb44cdea1188ac0000000000000000526a4c4f54686973204f505f52455455524e207472616e73616374696f6e206f7574707574207761732063726561746564206279206d6f646966696564206372656174657261777472616e73616374696f6e2e00000000"
}
