{
    "txid": "e7973c356000233deb64decc05c4263131e38eb82c4ad50aef0bf1ab578c0158",
    "hash": "e7973c356000233deb64decc05c4263131e38eb82c4ad50aef0bf1ab578c0158",
    "version": 2,
    "size": 85,
    "vsize": 85,
    "weight": 340,
    "locktime": 0,
    "vin": [
        {
            "txid": "5897de6bd6027a475eadd57019d4e6872c396d0716c4875a5f1a6fcfdf385c1f",
            "vout": 0,
            "scriptSig": {
                "asm": "",
                "hex": ""
            },
            "sequence": 4294967293
        }
    ],
    "vout": [
        {
            "value": 0.18000000,
            "n": 0,
            "scriptPubKey": {
                "asm": "OP_DUP OP_HASH160 5a2f1784c55a322ffe4cc3ca9fea8dfb44cdea11 OP_EQUALVERIFY OP_CHECKSIG",
                "desc": "addr(ERNkirDf3jsER2ykJevf8USM2rj8Xi3GCF)#6202at7e",
                "hex": "76a9145a2f1784c55a322ffe4cc3ca9fea8dfb44cdea1188ac",
                "address": "ERNkirDf3jsER2ykJevf8USM2rj8Xi3GCF",
                "type": "pubkeyhash"
            }
        }
    ],
    "hex": "02000000011f5c38dfcf6f1a5f5a87c416076d392c87e6d41970d5ad5e477a02d66bde97580000000000fdffffff0180a81201000000001976a9145a2f1784c55a322ffe4cc3ca9fea8dfb44cdea1188ac00000000"
}
