{
    "txid": "65a691c5607a9a82f6f01fdda522dee2a492e7f68db67de7a1ad37a4720713b5",
    "hash": "65a691c5607a9a82f6f01fdda522dee2a492e7f68db67de7a1ad37a4720713b5",
    "version": 2,
    "size": 201,
    "vsize": 201,
    "weight": 804,
    "locktime": 0,
    "vin": [
        {
            "txid": "5897de6bd6027a475eadd57019d4e6872c396d0716c4875a5f1a6fcfdf385c1f",
            "vout": 0,
            "scriptSig": {
                "asm": "",
                "hex": ""
            },
            "sequence": 4294967295
        },
        {
            "txid": "bf829c6bcf84579331337659d31f89dfd138f7f7785802d5501c92333145ca7c",
            "vout": 18,
            "scriptSig": {
                "asm": "",
                "hex": ""
            },
            "sequence": 4294967295
        },
        {
            "txid": "22a6f904655d53ae2ff70e701a0bbd90aa3975c0f40bfc6cc996a9049e31cdfc",
            "vout": 1,
            "scriptSig": {
                "asm": "",
                "hex": ""
            },
            "sequence": 4294967295
        }
    ],
    "vout": [
        {
            "value": 0.18000000,
            "n": 0,
            "scriptPubKey": {
                "asm": "OP_DUP OP_HASH160 5a2f1784c55a322ffe4cc3ca9fea8dfb44cdea11 OP_EQUALVERIFY OP_CHECKSIG",
                "desc": "addr(ERNkirDf3jsER2ykJevf8USM2rj8Xi3GCF)#6202at7e",
                "hex": "76a9145a2f1784c55a322ffe4cc3ca9fea8dfb44cdea1188ac",
                "address": "ERNkirDf3jsER2ykJevf8USM2rj8Xi3GCF",
                "type": "pubkeyhash"
            }
        },
        {
            "value": 4.00000000,
            "n": 1,
            "scriptPubKey": {
                "asm": "OP_DUP OP_HASH160 b346eeee8193d57ba8e06d1253a9b19ff5dcc69e OP_EQUALVERIFY OP_CHECKSIG",
                "desc": "addr(EZVqRTPZ819aKKkYEynGxWDHeAoqu3oLLH)#ptuy0sqe",
                "hex": "76a914b346eeee8193d57ba8e06d1253a9b19ff5dcc69e88ac",
                "address": "EZVqRTPZ819aKKkYEynGxWDHeAoqu3oLLH",
                "type": "pubkeyhash"
            }
        }
    ],
    "hex": "02000000031f5c38dfcf6f1a5f5a87c416076d392c87e6d41970d5ad5e477a02d66bde97580000000000ffffffff7cca453133921c50d5025878f7f738d1df891fd359763331935784cf6b9c82bf1200000000fffffffffccd319e04a996c96cfc0bf4c07539aa90bd0b1a700ef72fae535d6504f9a6220100000000ffffffff0280a81201000000001976a9145a2f1784c55a322ffe4cc3ca9fea8dfb44cdea1188ac0084d717000000001976a914b346eeee8193d57ba8e06d1253a9b19ff5dcc69e88ac00000000"
}
