{
    "txid": "cfc0d82bbc2d1ed172a776264fea4fe37abaa164a0dfd282f9b37b989223a515",
    "hash": "cfc0d82bbc2d1ed172a776264fea4fe37abaa164a0dfd282f9b37b989223a515",
    "version": 1,
    "size": 1645,
    "vsize": 1645,
    "weight": 6580,
    "locktime": 0,
    "vin": [
        {
            "txid": "4d49a71ec9da436f71ec4ee231d04f292a29cd316f598bb7068feccabdc59485",
            "vout": 0,
            "scriptSig": {
                "asm": "39f976b1c775cdd71a40cc039424f2782d9408252ac3a78507e0426b3ef586a64632114457a5e668cf79e022f83aeb3b9e8222142dc4437184916e37f88461c48a6619ad357ef6c3658a6a833b90d76ea7e237b23e4745065b9d7b2a26c9a96891c9591e244696863953fb2ec2d7c6acef1a49ec814e9e20be74e792b4e85f07035dd386f165b12b04f7e73a467009a7569d2c34054d1ba65aac8cb12982cbe4d1d2a8a9b027a11c5a4dc5173c98ba514ed21e87db9499dfaa02839259d7fb288e763e5c9cb4838253216a33efa3e7626164e6b7462559e401c1825ae3f0fcae2d32a4478cd6190849e69709f29d264790fe9f24945a0c43b7815f13676ec88ca8f65518f325ea9c8904a8d6eec81b9cef5a3009d2e38bcf321abd9982e1fa0c8b0ea2aefcc2876f6e51e82ca2452e4df30e9a09789febffae4a4662518d514bd069b6ae7a532c41702d2e933795e768468bd4beec25eede8769eed13c0c62cf96912368dd89335a2430965d8cf84997e4ad619f370d77f4dd945d2a90f37610fe894cf04e198685eec27a26ba96ba16b2ba9f0ca78168e5f5efd70dddcf16bd9b49c366f1c3b65c5eeb27c059d1b4bdf64fec650c40b3d1b79278a0182b66be66515358829b8f61965c32455b7431b49b16660594c3d633470897ca3446df212dd639776446526ee8c522367dbc29148baf1b983816a3288742d2d6414b6912855979da5c75b264888c6b9a186230f0de34889597bf0fb847c7468e98f832bda7b9127ca70a1338d23215aa4f338ef661eaf6ede2cc9c22d975e670cff8d6c71c91486955b84e14bc45e44a7d3f48403b74499ed9a6f8b4f9e28cbf217e7559be9056ec09b60e32b33d9ee7851646e66faa707b55d63d59b5c11a3e949499224fb32ccefda0a5632d1617fb1a[ALL] 07093d8d2215cf96ca4e446973586e5a25027f61a580c7bc02f644c80a7097746b44180e972f422edb882f63ab70ac3674a2b94a86dee3321977557df3b99557515d5692b9ca522640f243263a5d312f90b5d7d41df9bd68e685ed0bf84231636aff565a5f2461f6fc0a5f426c2d1abdcb7a34bc1b2a3e63587272fe317792b7260c2e7311931954282bf02fab5a3d9d13c72215d713d6dfa5d944e36600b1a41c577971b4f9a469c6da54f8db49b44b278200e822256f7d11f298a121914a00709fa8ef0b602dd03232e113d5bfe1ea4822a9f9c0006bd6474cff540907c3ffad3a15d6fbea9d05af5b215408f8c643b4058226f114539dedc713fc8a30867c0b18d08a45686c6695e5557f2fddfca50596972dcd7881994cc4763ed0c02d46d70b25754a0b45bf4ce1746a7b1c45aa28d9677428bbb1854c412464ddab557289aa27a53961316119dc5208d216697383c33a1d26613f990c8ea6c7c02b5d83b4a9c3eb699989842619a072176835303cb269d5aa90be79a802c0ec3dfd9c67e8d76ca7b62c6bef1a4c4bf46703a08298a421591841554e0aeecff2c30af8245d32ca180c5a5e9eb9e3c223dc83b52264a15e93421eb831c86b21bc4c3f33789ba26d2597164de5b41fbd8ee7f8a9667be04135e64e8a712694659943692b4e3dc2b518b20af54f500b23fc4f5106a7631a983e48e589d41744939e7b21d72f8f264da5c20b5fb1b765c267448c8e5829125144672629c411d2c4e6360544f3c02e1bb813b1e5f45e9497b2cc9a8accca1299820014c81936b0811b580259d1bf8a9956a1d6ee290a6e287f8850943a0ee42813386210bd805aca8e7870880634a2035869e3f54fd4eaa29504d1c9c7389f124da675907348a87bb760dbb94e9dcf357b516399f666eb824c8b06fc0917a71e74521110ab1ed75ca91558294e21cf580c124776cda71448afe8b808040169b0b706dacea1511497cd6d7631d116951b0d4c59bc7896a10ff9b9729f82342ca93eb68a5045d6527556e91a87527998c262e960cf298aed53249703649cbc0b04b6c084b5e59ae72387c46f7026f8bf5e4a00d2e5e5144fc2377d55eb785d7e6f66f5b3f70b8c6366dab540d1c05a354bf43628835e467d7ac8887c01d45dd982a2bd3725b7f6b7dbc53728bd55a78c4cac56fad681c73645508adabf27e21da0a216ec0633112e6062e087166ba6b378450a43526e979956110f4a4474001899263d62435622225a51cd999498637d",
                "hex": "4d8e0239f976b1c775cdd71a40cc039424f2782d9408252ac3a78507e0426b3ef586a64632114457a5e668cf79e022f83aeb3b9e8222142dc4437184916e37f88461c48a6619ad357ef6c3658a6a833b90d76ea7e237b23e4745065b9d7b2a26c9a96891c9591e244696863953fb2ec2d7c6acef1a49ec814e9e20be74e792b4e85f07035dd386f165b12b04f7e73a467009a7569d2c34054d1ba65aac8cb12982cbe4d1d2a8a9b027a11c5a4dc5173c98ba514ed21e87db9499dfaa02839259d7fb288e763e5c9cb4838253216a33efa3e7626164e6b7462559e401c1825ae3f0fcae2d32a4478cd6190849e69709f29d264790fe9f24945a0c43b7815f13676ec88ca8f65518f325ea9c8904a8d6eec81b9cef5a3009d2e38bcf321abd9982e1fa0c8b0ea2aefcc2876f6e51e82ca2452e4df30e9a09789febffae4a4662518d514bd069b6ae7a532c41702d2e933795e768468bd4beec25eede8769eed13c0c62cf96912368dd89335a2430965d8cf84997e4ad619f370d77f4dd945d2a90f37610fe894cf04e198685eec27a26ba96ba16b2ba9f0ca78168e5f5efd70dddcf16bd9b49c366f1c3b65c5eeb27c059d1b4bdf64fec650c40b3d1b79278a0182b66be66515358829b8f61965c32455b7431b49b16660594c3d633470897ca3446df212dd639776446526ee8c522367dbc29148baf1b983816a3288742d2d6414b6912855979da5c75b264888c6b9a186230f0de34889597bf0fb847c7468e98f832bda7b9127ca70a1338d23215aa4f338ef661eaf6ede2cc9c22d975e670cff8d6c71c91486955b84e14bc45e44a7d3f48403b74499ed9a6f8b4f9e28cbf217e7559be9056ec09b60e32b33d9ee7851646e66faa707b55d63d59b5c11a3e949499224fb32ccefda0a5632d1617fb1a014d820307093d8d2215cf96ca4e446973586e5a25027f61a580c7bc02f644c80a7097746b44180e972f422edb882f63ab70ac3674a2b94a86dee3321977557df3b99557515d5692b9ca522640f243263a5d312f90b5d7d41df9bd68e685ed0bf84231636aff565a5f2461f6fc0a5f426c2d1abdcb7a34bc1b2a3e63587272fe317792b7260c2e7311931954282bf02fab5a3d9d13c72215d713d6dfa5d944e36600b1a41c577971b4f9a469c6da54f8db49b44b278200e822256f7d11f298a121914a00709fa8ef0b602dd03232e113d5bfe1ea4822a9f9c0006bd6474cff540907c3ffad3a15d6fbea9d05af5b215408f8c643b4058226f114539dedc713fc8a30867c0b18d08a45686c6695e5557f2fddfca50596972dcd7881994cc4763ed0c02d46d70b25754a0b45bf4ce1746a7b1c45aa28d9677428bbb1854c412464ddab557289aa27a53961316119dc5208d216697383c33a1d26613f990c8ea6c7c02b5d83b4a9c3eb699989842619a072176835303cb269d5aa90be79a802c0ec3dfd9c67e8d76ca7b62c6bef1a4c4bf46703a08298a421591841554e0aeecff2c30af8245d32ca180c5a5e9eb9e3c223dc83b52264a15e93421eb831c86b21bc4c3f33789ba26d2597164de5b41fbd8ee7f8a9667be04135e64e8a712694659943692b4e3dc2b518b20af54f500b23fc4f5106a7631a983e48e589d41744939e7b21d72f8f264da5c20b5fb1b765c267448c8e5829125144672629c411d2c4e6360544f3c02e1bb813b1e5f45e9497b2cc9a8accca1299820014c81936b0811b580259d1bf8a9956a1d6ee290a6e287f8850943a0ee42813386210bd805aca8e7870880634a2035869e3f54fd4eaa29504d1c9c7389f124da675907348a87bb760dbb94e9dcf357b516399f666eb824c8b06fc0917a71e74521110ab1ed75ca91558294e21cf580c124776cda71448afe8b808040169b0b706dacea1511497cd6d7631d116951b0d4c59bc7896a10ff9b9729f82342ca93eb68a5045d6527556e91a87527998c262e960cf298aed53249703649cbc0b04b6c084b5e59ae72387c46f7026f8bf5e4a00d2e5e5144fc2377d55eb785d7e6f66f5b3f70b8c6366dab540d1c05a354bf43628835e467d7ac8887c01d45dd982a2bd3725b7f6b7dbc53728bd55a78c4cac56fad681c73645508adabf27e21da0a216ec0633112e6062e087166ba6b378450a43526e979956110f4a4474001899263d62435622225a51cd999498637d"
            },
            "sequence": 4294967295
        }
    ],
    "vout": [
        {
            "value": 0.00100000,
            "n": 0,
            "scriptPubKey": {
                "asm": "OP_DUP OP_HASH160 5a2f1784c55a322ffe4cc3ca9fea8dfb44cdea11 OP_EQUALVERIFY OP_CHECKSIG",
                "desc": "addr(ERNkirDf3jsER2ykJevf8USM2rj8Xi3GCF)#6202at7e",
                "hex": "76a9145a2f1784c55a322ffe4cc3ca9fea8dfb44cdea1188ac",
                "address": "ERNkirDf3jsER2ykJevf8USM2rj8Xi3GCF",
                "type": "pubkeyhash"
            }
        }
    ],
    "hex": "01000000018594c5bdcaec8f06b78b596f31cd292a294fd031e24eec716f43dac91ea7494d00000000fd16064d8e0239f976b1c775cdd71a40cc039424f2782d9408252ac3a78507e0426b3ef586a64632114457a5e668cf79e022f83aeb3b9e8222142dc4437184916e37f88461c48a6619ad357ef6c3658a6a833b90d76ea7e237b23e4745065b9d7b2a26c9a96891c9591e244696863953fb2ec2d7c6acef1a49ec814e9e20be74e792b4e85f07035dd386f165b12b04f7e73a467009a7569d2c34054d1ba65aac8cb12982cbe4d1d2a8a9b027a11c5a4dc5173c98ba514ed21e87db9499dfaa02839259d7fb288e763e5c9cb4838253216a33efa3e7626164e6b7462559e401c1825ae3f0fcae2d32a4478cd6190849e69709f29d264790fe9f24945a0c43b7815f13676ec88ca8f65518f325ea9c8904a8d6eec81b9cef5a3009d2e38bcf321abd9982e1fa0c8b0ea2aefcc2876f6e51e82ca2452e4df30e9a09789febffae4a4662518d514bd069b6ae7a532c41702d2e933795e768468bd4beec25eede8769eed13c0c62cf96912368dd89335a2430965d8cf84997e4ad619f370d77f4dd945d2a90f37610fe894cf04e198685eec27a26ba96ba16b2ba9f0ca78168e5f5efd70dddcf16bd9b49c366f1c3b65c5eeb27c059d1b4bdf64fec650c40b3d1b79278a0182b66be66515358829b8f61965c32455b7431b49b16660594c3d633470897ca3446df212dd639776446526ee8c522367dbc29148baf1b983816a3288742d2d6414b6912855979da5c75b264888c6b9a186230f0de34889597bf0fb847c7468e98f832bda7b9127ca70a1338d23215aa4f338ef661eaf6ede2cc9c22d975e670cff8d6c71c91486955b84e14bc45e44a7d3f48403b74499ed9a6f8b4f9e28cbf217e7559be9056ec09b60e32b33d9ee7851646e66faa707b55d63d59b5c11a3e949499224fb32ccefda0a5632d1617fb1a014d820307093d8d2215cf96ca4e446973586e5a25027f61a580c7bc02f644c80a7097746b44180e972f422edb882f63ab70ac3674a2b94a86dee3321977557df3b99557515d5692b9ca522640f243263a5d312f90b5d7d41df9bd68e685ed0bf84231636aff565a5f2461f6fc0a5f426c2d1abdcb7a34bc1b2a3e63587272fe317792b7260c2e7311931954282bf02fab5a3d9d13c72215d713d6dfa5d944e36600b1a41c577971b4f9a469c6da54f8db49b44b278200e822256f7d11f298a121914a00709fa8ef0b602dd03232e113d5bfe1ea4822a9f9c0006bd6474cff540907c3ffad3a15d6fbea9d05af5b215408f8c643b4058226f114539dedc713fc8a30867c0b18d08a45686c6695e5557f2fddfca50596972dcd7881994cc4763ed0c02d46d70b25754a0b45bf4ce1746a7b1c45aa28d9677428bbb1854c412464ddab557289aa27a53961316119dc5208d216697383c33a1d26613f990c8ea6c7c02b5d83b4a9c3eb699989842619a072176835303cb269d5aa90be79a802c0ec3dfd9c67e8d76ca7b62c6bef1a4c4bf46703a08298a421591841554e0aeecff2c30af8245d32ca180c5a5e9eb9e3c223dc83b52264a15e93421eb831c86b21bc4c3f33789ba26d2597164de5b41fbd8ee7f8a9667be04135e64e8a712694659943692b4e3dc2b518b20af54f500b23fc4f5106a7631a983e48e589d41744939e7b21d72f8f264da5c20b5fb1b765c267448c8e5829125144672629c411d2c4e6360544f3c02e1bb813b1e5f45e9497b2cc9a8accca1299820014c81936b0811b580259d1bf8a9956a1d6ee290a6e287f8850943a0ee42813386210bd805aca8e7870880634a2035869e3f54fd4eaa29504d1c9c7389f124da675907348a87bb760dbb94e9dcf357b516399f666eb824c8b06fc0917a71e74521110ab1ed75ca91558294e21cf580c124776cda71448afe8b808040169b0b706dacea1511497cd6d7631d116951b0d4c59bc7896a10ff9b9729f82342ca93eb68a5045d6527556e91a87527998c262e960cf298aed53249703649cbc0b04b6c084b5e59ae72387c46f7026f8bf5e4a00d2e5e5144fc2377d55eb785d7e6f66f5b3f70b8c6366dab540d1c05a354bf43628835e467d7ac8887c01d45dd982a2bd3725b7f6b7dbc53728bd55a78c4cac56fad681c73645508adabf27e21da0a216ec0633112e6062e087166ba6b378450a43526e979956110f4a4474001899263d62435622225a51cd999498637dffffffff01a0860100000000001976a9145a2f1784c55a322ffe4cc3ca9fea8dfb44cdea1188ac00000000"
}
